{
  "_format": "hh-sol-artifact-1",
  "contractName": "HeraPheriCoin",
  "sourceName": "contracts/HeraPheriCoin.sol",
  "abi": [
    {
      "inputs": [],
      "stateMutability": "nonpayable",
      "type": "constructor"
    },
    {
      "inputs": [
        {
          "internalType": "address",
          "name": "spender",
          "type": "address"
        },
        {
          "internalType": "uint256",
          "name": "allowance",
          "type": "uint256"
        },
        {
          "internalType": "uint256",
          "name": "needed",
          "type": "uint256"
        }
      ],
      "name": "ERC20InsufficientAllowance",
      "type": "error"
    },
    {
      "inputs": [
        {
          "internalType": "address",
          "name": "sender",
          "type": "address"
        },
        {
          "internalType": "uint256",
          "name": "balance",
          "type": "uint256"
        },
        {
          "internalType": "uint256",
          "name": "needed",
          "type": "uint256"
        }
      ],
      "name": "ERC20InsufficientBalance",
      "type": "error"
    },
    {
      "inputs": [
        {
          "internalType": "address",
          "name": "approver",
          "type": "address"
        }
      ],
      "name": "ERC20InvalidApprover",
      "type": "error"
    },
    {
      "inputs": [
        {
          "internalType": "address",
          "name": "receiver",
          "type": "address"
        }
      ],
      "name": "ERC20InvalidReceiver",
      "type": "error"
    },
    {
      "inputs": [
        {
          "internalType": "address",
          "name": "sender",
          "type": "address"
        }
      ],
      "name": "ERC20InvalidSender",
      "type": "error"
    },
    {
      "inputs": [
        {
          "internalType": "address",
          "name": "spender",
          "type": "address"
        }
      ],
      "name": "ERC20InvalidSpender",
      "type": "error"
    },
    {
      "anonymous": false,
      "inputs": [
        {
          "indexed": true,
          "internalType": "address",
          "name": "owner",
          "type": "address"
        },
        {
          "indexed": true,
          "internalType": "address",
          "name": "spender",
          "type": "address"
        },
        {
          "indexed": false,
          "internalType": "uint256",
          "name": "value",
          "type": "uint256"
        }
      ],
      "name": "Approval",
      "type": "event"
    },
    {
      "anonymous": false,
      "inputs": [
        {
          "indexed": true,
          "internalType": "address",
          "name": "from",
          "type": "address"
        },
        {
          "indexed": true,
          "internalType": "address",
          "name": "to",
          "type": "address"
        },
        {
          "indexed": false,
          "internalType": "uint256",
          "name": "value",
          "type": "uint256"
        }
      ],
      "name": "Transfer",
      "type": "event"
    },
    {
      "inputs": [
        {
          "internalType": "address",
          "name": "owner",
          "type": "address"
        },
        {
          "internalType": "address",
          "name": "spender",
          "type": "address"
        }
      ],
      "name": "allowance",
      "outputs": [
        {
          "internalType": "uint256",
          "name": "",
          "type": "uint256"
        }
      ],
      "stateMutability": "view",
      "type": "function"
    },
    {
      "inputs": [
        {
          "internalType": "address",
          "name": "spender",
          "type": "address"
        },
        {
          "internalType": "uint256",
          "name": "value",
          "type": "uint256"
        }
      ],
      "name": "approve",
      "outputs": [
        {
          "internalType": "bool",
          "name": "",
          "type": "bool"
        }
      ],
      "stateMutability": "nonpayable",
      "type": "function"
    },
    {
      "inputs": [
        {
          "internalType": "address",
          "name": "account",
          "type": "address"
        }
      ],
      "name": "balanceOf",
      "outputs": [
        {
          "internalType": "uint256",
          "name": "",
          "type": "uint256"
        }
      ],
      "stateMutability": "view",
      "type": "function"
    },
    {
      "inputs": [
        {
          "internalType": "uint256",
          "name": "amount",
          "type": "uint256"
        }
      ],
      "name": "burn",
      "outputs": [],
      "stateMutability": "nonpayable",
      "type": "function"
    },
    {
      "inputs": [],
      "name": "decimals",
      "outputs": [
        {
          "internalType": "uint8",
          "name": "",
          "type": "uint8"
        }
      ],
      "stateMutability": "view",
      "type": "function"
    },
    {
      "inputs": [
        {
          "internalType": "address",
          "name": "to",
          "type": "address"
        },
        {
          "internalType": "uint256",
          "name": "amount",
          "type": "uint256"
        }
      ],
      "name": "mint",
      "outputs": [],
      "stateMutability": "nonpayable",
      "type": "function"
    },
    {
      "inputs": [],
      "name": "name",
      "outputs": [
        {
          "internalType": "string",
          "name": "",
          "type": "string"
        }
      ],
      "stateMutability": "view",
      "type": "function"
    },
    {
      "inputs": [],
      "name": "owner",
      "outputs": [
        {
          "internalType": "address",
          "name": "",
          "type": "address"
        }
      ],
      "stateMutability": "view",
      "type": "function"
    },
    {
      "inputs": [],
      "name": "symbol",
      "outputs": [
        {
          "internalType": "string",
          "name": "",
          "type": "string"
        }
      ],
      "stateMutability": "view",
      "type": "function"
    },
    {
      "inputs": [],
      "name": "totalSupply",
      "outputs": [
        {
          "internalType": "uint256",
          "name": "",
          "type": "uint256"
        }
      ],
      "stateMutability": "view",
      "type": "function"
    },
    {
      "inputs": [
        {
          "internalType": "address",
          "name": "to",
          "type": "address"
        },
        {
          "internalType": "uint256",
          "name": "value",
          "type": "uint256"
        }
      ],
      "name": "transfer",
      "outputs": [
        {
          "internalType": "bool",
          "name": "",
          "type": "bool"
        }
      ],
      "stateMutability": "nonpayable",
      "type": "function"
    },
    {
      "inputs": [
        {
          "internalType": "address",
          "name": "from",
          "type": "address"
        },
        {
          "internalType": "address",
          "name": "to",
          "type": "address"
        },
        {
          "internalType": "uint256",
          "name": "value",
          "type": "uint256"
        }
      ],
      "name": "transferFrom",
      "outputs": [
        {
          "internalType": "bool",
          "name": "",
          "type": "bool"
        }
      ],
      "stateMutability": "nonpayable",
      "type": "function"
    }
  ],
  "bytecode": "0x60806040523480156200001157600080fd5b506040518060400160405280600d81526020017f486572615068657269436f696e000000000000000000000000000000000000008152506040518060400160405280600381526020017f485043000000000000000000000000000000000000000000000000000000000081525081600390816200008f919062000671565b508060049081620000a1919062000671565b505050600063042c1d809050620000e933620000c26200013160201b60201c565b600a620000d09190620008e8565b83620000dd919062000939565b6200013a60201b60201c565b33600560006101000a81548173ffffffffffffffffffffffffffffffffffffffff021916908373ffffffffffffffffffffffffffffffffffffffff1602179055505062000a8c565b60006012905090565b600073ffffffffffffffffffffffffffffffffffffffff168273ffffffffffffffffffffffffffffffffffffffff1603620001af5760006040517fec442f05000000000000000000000000000000000000000000000000000000008152600401620001a69190620009c9565b60405180910390fd5b620001c360008383620001c760201b60201c565b5050565b600073ffffffffffffffffffffffffffffffffffffffff168373ffffffffffffffffffffffffffffffffffffffff16036200021d578060026000828254620002109190620009e6565b92505081905550620002f3565b60008060008573ffffffffffffffffffffffffffffffffffffffff1673ffffffffffffffffffffffffffffffffffffffff16815260200190815260200160002054905081811015620002ac578381836040517fe450d38c000000000000000000000000000000000000000000000000000000008152600401620002a39392919062000a32565b60405180910390fd5b8181036000808673ffffffffffffffffffffffffffffffffffffffff1673ffffffffffffffffffffffffffffffffffffffff16815260200190815260200160002081905550505b600073ffffffffffffffffffffffffffffffffffffffff168273ffffffffffffffffffffffffffffffffffffffff16036200033e57806002600082825403925050819055506200038b565b806000808473ffffffffffffffffffffffffffffffffffffffff1673ffffffffffffffffffffffffffffffffffffffff168152602001908152602001600020600082825401925050819055505b8173ffffffffffffffffffffffffffffffffffffffff168373ffffffffffffffffffffffffffffffffffffffff167fddf252ad1be2c89b69c2b068fc378daa952ba7f163c4a11628f55a4df523b3ef83604051620003ea919062000a6f565b60405180910390a3505050565b600081519050919050565b7f4e487b7100000000000000000000000000000000000000000000000000000000600052604160045260246000fd5b7f4e487b7100000000000000000000000000000000000000000000000000000000600052602260045260246000fd5b600060028204905060018216806200047957607f821691505b6020821081036200048f576200048e62000431565b5b50919050565b60008190508160005260206000209050919050565b60006020601f8301049050919050565b600082821b905092915050565b600060088302620004f97fffffffffffffffffffffffffffffffffffffffffffffffffffffffffffffffff82620004ba565b620005058683620004ba565b95508019841693508086168417925050509392505050565b6000819050919050565b6000819050919050565b6000620005526200054c62000546846200051d565b62000527565b6200051d565b9050919050565b6000819050919050565b6200056e8362000531565b620005866200057d8262000559565b848454620004c7565b825550505050565b600090565b6200059d6200058e565b620005aa81848462000563565b505050565b5b81811015620005d257620005c660008262000593565b600181019050620005b0565b5050565b601f8211156200062157620005eb8162000495565b620005f684620004aa565b8101602085101562000606578190505b6200061e6200061585620004aa565b830182620005af565b50505b505050565b600082821c905092915050565b6000620006466000198460080262000626565b1980831691505092915050565b600062000661838362000633565b9150826002028217905092915050565b6200067c82620003f7565b67ffffffffffffffff81111562000698576200069762000402565b5b620006a4825462000460565b620006b1828285620005d6565b600060209050601f831160018114620006e95760008415620006d4578287015190505b620006e0858262000653565b86555062000750565b601f198416620006f98662000495565b60005b828110156200072357848901518255600182019150602085019450602081019050620006fc565b868310156200074357848901516200073f601f89168262000633565b8355505b6001600288020188555050505b505050505050565b7f4e487b7100000000000000000000000000000000000000000000000000000000600052601160045260246000fd5b60008160011c9050919050565b6000808291508390505b6001851115620007e657808604811115620007be57620007bd62000758565b5b6001851615620007ce5780820291505b8081029050620007de8562000787565b94506200079e565b94509492505050565b600082620008015760019050620008d4565b81620008115760009050620008d4565b81600181146200082a576002811462000835576200086b565b6001915050620008d4565b60ff8411156200084a576200084962000758565b5b8360020a91508482111562000864576200086362000758565b5b50620008d4565b5060208310610133831016604e8410600b8410161715620008a55782820a9050838111156200089f576200089e62000758565b5b620008d4565b620008b4848484600162000794565b92509050818404811115620008ce57620008cd62000758565b5b81810290505b9392505050565b600060ff82169050919050565b6000620008f5826200051d565b91506200090283620008db565b9250620009317fffffffffffffffffffffffffffffffffffffffffffffffffffffffffffffffff8484620007ef565b905092915050565b600062000946826200051d565b915062000953836200051d565b925082820262000963816200051d565b915082820484148315176200097d576200097c62000758565b5b5092915050565b600073ffffffffffffffffffffffffffffffffffffffff82169050919050565b6000620009b18262000984565b9050919050565b620009c381620009a4565b82525050565b6000602082019050620009e06000830184620009b8565b92915050565b6000620009f3826200051d565b915062000a00836200051d565b925082820190508082111562000a1b5762000a1a62000758565b5b92915050565b62000a2c816200051d565b82525050565b600060608201905062000a496000830186620009b8565b62000a58602083018562000a21565b62000a67604083018462000a21565b949350505050565b600060208201905062000a86600083018462000a21565b92915050565b61113a8062000a9c6000396000f3fe608060405234801561001057600080fd5b50600436106100b45760003560e01c806342966c681161007157806342966c681461018f57806370a08231146101ab5780638da5cb5b146101db57806395d89b41146101f9578063a9059cbb14610217578063dd62ed3e14610247576100b4565b806306fdde03146100b9578063095ea7b3146100d757806318160ddd1461010757806323b872dd14610125578063313ce5671461015557806340c10f1914610173575b600080fd5b6100c1610277565b6040516100ce9190610cf5565b60405180910390f35b6100f160048036038101906100ec9190610db0565b610309565b6040516100fe9190610e0b565b60405180910390f35b61010f61032c565b60405161011c9190610e35565b60405180910390f35b61013f600480360381019061013a9190610e50565b610336565b60405161014c9190610e0b565b60405180910390f35b61015d610365565b60405161016a9190610ebf565b60405180910390f35b61018d60048036038101906101889190610db0565b61036e565b005b6101a960048036038101906101a49190610eda565b61040c565b005b6101c560048036038101906101c09190610f07565b610419565b6040516101d29190610e35565b60405180910390f35b6101e3610461565b6040516101f09190610f43565b60405180910390f35b610201610487565b60405161020e9190610cf5565b60405180910390f35b610231600480360381019061022c9190610db0565b610519565b60405161023e9190610e0b565b60405180910390f35b610261600480360381019061025c9190610f5e565b61053c565b60405161026e9190610e35565b60405180910390f35b60606003805461028690610fcd565b80601f01602080910402602001604051908101604052809291908181526020018280546102b290610fcd565b80156102ff5780601f106102d4576101008083540402835291602001916102ff565b820191906000526020600020905b8154815290600101906020018083116102e257829003601f168201915b5050505050905090565b6000806103146105c3565b90506103218185856105cb565b600191505092915050565b6000600254905090565b6000806103416105c3565b905061034e8582856105dd565b610359858585610671565b60019150509392505050565b60006012905090565b600560009054906101000a900473ffffffffffffffffffffffffffffffffffffffff1673ffffffffffffffffffffffffffffffffffffffff163373ffffffffffffffffffffffffffffffffffffffff16146103fe576040517f08c379a00000000000000000000000000000000000000000000000000000000081526004016103f59061104a565b60405180910390fd5b6104088282610765565b5050565b61041633826107e7565b50565b60008060008373ffffffffffffffffffffffffffffffffffffffff1673ffffffffffffffffffffffffffffffffffffffff168152602001908152602001600020549050919050565b600560009054906101000a900473ffffffffffffffffffffffffffffffffffffffff1681565b60606004805461049690610fcd565b80601f01602080910402602001604051908101604052809291908181526020018280546104c290610fcd565b801561050f5780601f106104e45761010080835404028352916020019161050f565b820191906000526020600020905b8154815290600101906020018083116104f257829003601f168201915b5050505050905090565b6000806105246105c3565b9050610531818585610671565b600191505092915050565b6000600160008473ffffffffffffffffffffffffffffffffffffffff1673ffffffffffffffffffffffffffffffffffffffff16815260200190815260200160002060008373ffffffffffffffffffffffffffffffffffffffff1673ffffffffffffffffffffffffffffffffffffffff16815260200190815260200160002054905092915050565b600033905090565b6105d88383836001610869565b505050565b60006105e9848461053c565b90507fffffffffffffffffffffffffffffffffffffffffffffffffffffffffffffffff811461066b578181101561065b578281836040517ffb8f41b20000000000000000000000000000000000000000000000000000000081526004016106529392919061106a565b60405180910390fd5b61066a84848484036000610869565b5b50505050565b600073ffffffffffffffffffffffffffffffffffffffff168373ffffffffffffffffffffffffffffffffffffffff16036106e35760006040517f96c6fd1e0000000000000000000000000000000000000000000000000000000081526004016106da9190610f43565b60405180910390fd5b600073ffffffffffffffffffffffffffffffffffffffff168273ffffffffffffffffffffffffffffffffffffffff16036107555760006040517fec442f0500000000000000000000000000000000000000000000000000000000815260040161074c9190610f43565b60405180910390fd5b610760838383610a40565b505050565b600073ffffffffffffffffffffffffffffffffffffffff168273ffffffffffffffffffffffffffffffffffffffff16036107d75760006040517fec442f050000000000000000000000000000000000000000000000000000000081526004016107ce9190610f43565b60405180910390fd5b6107e360008383610a40565b5050565b600073ffffffffffffffffffffffffffffffffffffffff168273ffffffffffffffffffffffffffffffffffffffff16036108595760006040517f96c6fd1e0000000000000000000000000000000000000000000000000000000081526004016108509190610f43565b60405180910390fd5b61086582600083610a40565b5050565b600073ffffffffffffffffffffffffffffffffffffffff168473ffffffffffffffffffffffffffffffffffffffff16036108db5760006040517fe602df050000000000000000000000000000000000000000000000000000000081526004016108d29190610f43565b60405180910390fd5b600073ffffffffffffffffffffffffffffffffffffffff168373ffffffffffffffffffffffffffffffffffffffff160361094d5760006040517f94280d620000000000000000000000000000000000000000000000000000000081526004016109449190610f43565b60405180910390fd5b81600160008673ffffffffffffffffffffffffffffffffffffffff1673ffffffffffffffffffffffffffffffffffffffff16815260200190815260200160002060008573ffffffffffffffffffffffffffffffffffffffff1673ffffffffffffffffffffffffffffffffffffffff168152602001908152602001600020819055508015610a3a578273ffffffffffffffffffffffffffffffffffffffff168473ffffffffffffffffffffffffffffffffffffffff167f8c5be1e5ebec7d5bd14f71427d1e84f3dd0314c0f7b2291e5b200ac8c7c3b92584604051610a319190610e35565b60405180910390a35b50505050565b600073ffffffffffffffffffffffffffffffffffffffff168373ffffffffffffffffffffffffffffffffffffffff1603610a92578060026000828254610a8691906110d0565b92505081905550610b65565b60008060008573ffffffffffffffffffffffffffffffffffffffff1673ffffffffffffffffffffffffffffffffffffffff16815260200190815260200160002054905081811015610b1e578381836040517fe450d38c000000000000000000000000000000000000000000000000000000008152600401610b159392919061106a565b60405180910390fd5b8181036000808673ffffffffffffffffffffffffffffffffffffffff1673ffffffffffffffffffffffffffffffffffffffff16815260200190815260200160002081905550505b600073ffffffffffffffffffffffffffffffffffffffff168273ffffffffffffffffffffffffffffffffffffffff1603610bae5780600260008282540392505081905550610bfb565b806000808473ffffffffffffffffffffffffffffffffffffffff1673ffffffffffffffffffffffffffffffffffffffff168152602001908152602001600020600082825401925050819055505b8173ffffffffffffffffffffffffffffffffffffffff168373ffffffffffffffffffffffffffffffffffffffff167fddf252ad1be2c89b69c2b068fc378daa952ba7f163c4a11628f55a4df523b3ef83604051610c589190610e35565b60405180910390a3505050565b600081519050919050565b600082825260208201905092915050565b60005b83811015610c9f578082015181840152602081019050610c84565b60008484015250505050565b6000601f19601f8301169050919050565b6000610cc782610c65565b610cd18185610c70565b9350610ce1818560208601610c81565b610cea81610cab565b840191505092915050565b60006020820190508181036000830152610d0f8184610cbc565b905092915050565b600080fd5b600073ffffffffffffffffffffffffffffffffffffffff82169050919050565b6000610d4782610d1c565b9050919050565b610d5781610d3c565b8114610d6257600080fd5b50565b600081359050610d7481610d4e565b92915050565b6000819050919050565b610d8d81610d7a565b8114610d9857600080fd5b50565b600081359050610daa81610d84565b92915050565b60008060408385031215610dc757610dc6610d17565b5b6000610dd585828601610d65565b9250506020610de685828601610d9b565b9150509250929050565b60008115159050919050565b610e0581610df0565b82525050565b6000602082019050610e206000830184610dfc565b92915050565b610e2f81610d7a565b82525050565b6000602082019050610e4a6000830184610e26565b92915050565b600080600060608486031215610e6957610e68610d17565b5b6000610e7786828701610d65565b9350506020610e8886828701610d65565b9250506040610e9986828701610d9b565b9150509250925092565b600060ff82169050919050565b610eb981610ea3565b82525050565b6000602082019050610ed46000830184610eb0565b92915050565b600060208284031215610ef057610eef610d17565b5b6000610efe84828501610d9b565b91505092915050565b600060208284031215610f1d57610f1c610d17565b5b6000610f2b84828501610d65565b91505092915050565b610f3d81610d3c565b82525050565b6000602082019050610f586000830184610f34565b92915050565b60008060408385031215610f7557610f74610d17565b5b6000610f8385828601610d65565b9250506020610f9485828601610d65565b9150509250929050565b7f4e487b7100000000000000000000000000000000000000000000000000000000600052602260045260246000fd5b60006002820490506001821680610fe557607f821691505b602082108103610ff857610ff7610f9e565b5b50919050565b7f4f6e6c79206f776e65722063616e206d696e7420746f6b656e73000000000000600082015250565b6000611034601a83610c70565b915061103f82610ffe565b602082019050919050565b6000602082019050818103600083015261106381611027565b9050919050565b600060608201905061107f6000830186610f34565b61108c6020830185610e26565b6110996040830184610e26565b949350505050565b7f4e487b7100000000000000000000000000000000000000000000000000000000600052601160045260246000fd5b60006110db82610d7a565b91506110e683610d7a565b92508282019050808211156110fe576110fd6110a1565b5b9291505056fea2646970667358221220a622ebd7f6664ad20d3f3010d0967d22ea9ea0f6d6d396a4a95f61a46934c8dc64736f6c63430008180033",
  "linkReferences": {},
  "deployedLinkReferences": {}
}